:020000040800F2
:100000009006002029020008670200086902000823
:100010006B0200086D0200086F020008000000007B
:100020000000000000000000000000007102000855
:10003000730200080000000075020008211000088B
:1000400079020008790200087902000879020008A4
:100050007902000879020008790200087902000894
:100060007902000879020008790200087902000884
:100070007902000879020008790200087902000874
:100080007902000879020008790200087902000864
:100090007902000879020008790200087902000854
:1000A0007902000879020008790200087902000844
:1000B0007902000879020008790200087902000834
:1000C0007902000879020008790200087902000824
:1000D0007902000879020008790200087902000814
:1000E0007902000879020008790200087902000804
:1000F00079020008790200087902000879020008F4
:1001000079020008790200087902000879020008E3
:1001100079020008790200087902000879020008D3
:1001200079020008790200087902000879020008C3
:1001300079020008790200087902000879020008B3
:1001400079020008790200087902000879020008A3
:100150007902000879020008790200087902000893
:100160007902000879020008790200087902000883
:1001700079020008790200087902000800000000F6
:10018000790200087902000800F002F800F03CF85B
:100190000AA090E8000C82448344AAF10107DA45E2
:1001A00001D100F031F8AFF2090EBAE80F0013F0F8
:1001B000010F18BFFB1A43F001031847D4180000C1
:1001C000F4180000103A24BF78C878C1FAD8520752
:1001D00024BF30C830C144BF04680C6070470000C1
:1001E0000023002400250026103A28BF78C1FBD840
:1001F000520728BF30C148BF0B6070471FB501F0E0
:10020000BAF91FBD10B510BD00F05BF81146FFF73D
:10021000F5FF01F075F900F079F803B4FFF7F2FF8C
:1002200003BC00F081F8000017481849184B9942A8
:100230003CBF50F8042B41F8042BF8D3154B16495A
:100240004FF000028B4238BF43F8042BFAD3DFF89B
:100250004C00016841F470010160BFF34F8FBFF3A0
:100260006F8F0F480047FEE7FEE7FEE7FEE7FEE779
:10027000FEE7FEE7FEE7FEE7FEE7000009480A4961
:100280000A4A0B4B70470000B01A0008000000201B
:1002900008000020080000209006002088ED00E003
:1002A00089010008900000209006002090020020A4
:1002B00090020020002800DA4042704770477047E3
:1002C0007047754600F02CF8AE4605006946534667
:1002D00020F00700854618B020B5FFF7CFFFBDE836
:1002E00020404FF000064FF000074FF000084FF09D
:1002F000000BAC46ACE8C009ACE8C009ACE8C009EA
:10030000ACE8C00921F007018D46704710B50446DE
:10031000AFF300802046BDE81040FFF77EBF00002D
:10032000004870470800002001491820ABBEFEE7D6
:10033000260002007047000080B582B0ADF80600CC
:10034000ADF80410ADF80220BDF80620BDF8043069
:100350001046194600F032FA9DF8030000F0EEF95D
:100360009DF8020000F0EAF902B080BD80B584B0CB
:10037000ADF80E004FF496300290FF20ADF8060065
:1003800040F20000C2F200000078012808D0FFE728
:1003900040F20000C2F200000078032808D1FFE715
:1003A0000021EF2240F23F13084600F007FA18E060
:1003B00040F20000C2F200000078022808D0FFE7F7
:1003C00040F20000C2F200000078042808D1FFE7E4
:1003D000002140F23F12EF23084600F0EFF9FFE75B
:1003E000FFE7FFE7029860B1FFE70298013802904B
:1003F0009DF80F0000F0A2F99DF80E0000F09EF9A4
:10040000F0E704B080BD000080B586B0844608984F
:10041000CDF814C0049103920293ADF8060003983E
:100420000599401A01300299049A891A013148430A
:1004300000900098B0F5963F04D9FFE74FF496304E
:100440000090FFE7BDF81400BDF81010BDF80C20B7
:10045000BDF8083000F0B2F9FFE7009860B1FFE79F
:100460000098013800909DF8070000F067F99DF8AA
:10047000060000F063F9F0E706B080BDB0B58AB0C1
:100480008C46864610980F990E99CDF824E0CDF849
:1004900020C0ADF81E200693ADF81610ADF814007C
:1004A000099840F26C01C2F200010860089840F21D
:1004B000780CC2F2000CCCF80000BDF81E0040F22F
:1004C0007C01C2F200010880069840F28003C2F26B
:1004D00000031860BDF8160040F28401C2F200016A
:1004E00008800F9840F28801C2F200010860BDF850
:1004F000140040F28C02C2F200021080BDF81E000F
:100500004FEA400E032000FA0EF5DCF80040D4F864
:1005100000E02EEA050EC4F800E0BDF816E04FEA50
:100520004E0E00FA0EF51C68D4F800E02EEA050E17
:10053000C4F800E0BDF814E04FEA4E0E00FA0EF4E5
:10054000D1F800E0DEF80000A043CEF80000BDF8CE
:100550001E004FEA400E0120019000FA0EF4DCF874
:1005600000E0DEF800C04CEA040CCEF800C0BDF894
:1005700016C04FEA4C0C00FA0CFED3F800C0DCF8B1
:10058000003043EA0E03CCF80030BDF814305B00B5
:1005900000FA03FED1F800C0DCF8003043EA0E0395
:1005A000CCF80030128800FA02F30A685169194346
:1005B000516100F083F86420049000F0D9FC2820F9
:1005C00000F07CF8C02000F079F8262000F0B6F8A2
:1005D000C12000F073F81120039000F0AFF8C5209F
:1005E00000F06CF8352000F0A9F83E2000F0A6F8E5
:1005F000C72000F063F8BE2000F0A0F8362000F01D
:100600005DF8482000F09AF83A2000F057F855209D
:1006100000F094F8B12000F051F80020029000F0B2
:100620008DF81F2000F08AF82A2000F047F8029881
:1006300000F084F8029800F081F8029800F07EF84B
:10064000EF2000F07BF82B2000F038F8029800F043
:1006500075F8029800F072F8019800F06FF83F20EA
:1006600000F06CF8342000F029F8B72000F026F8EC
:10067000072000F063F8B62000F020F80A2000F010
:100680005DF8822000F05AF8272000F057F8029811
:1006900000F054F8039800F011F8049800F068FC9A
:1006A000292000F00BF8049800F062FC2C2000F0E8
:1006B00005F8052000F05CFC0AB0B0BD80B584B040
:1006C0008DF80F009DF80F008DF80E0040F28400A9
:1006D000C2F2000000880122019202FA00F340F207
:1006E0008000C2F20000016848699843486140F206
:1006F0007C00C2F200000090008802FA00F340F291
:100700007800C2F20000029001684869984348618D
:1007100040F26C00C2F2000000680DF10E0100F022
:1007200045FC009A01990298128801FA02F20168C8
:1007300048691043486104B080BD000080B584B0B2
:100740008DF80F009DF80F008DF80E0040F2840028
:10075000C2F2000000880122019202FA00F340F286
:100760008000C2F20000016848691843486140F205
:100770007C00C2F200000090008802FA00F340F210
:100780007800C2F20000029001684869984348610D
:1007900040F26C00C2F2000000680DF10E0100F0A2
:1007A00005FC009A01990298128801FA02F2016888
:1007B00048691043486104B080BD000080B582B034
:1007C000ADF80600ADF80410ADF80220ADF8003029
:1007D0002A20FFF773FF9DF80700FFF7AFFF9DF892
:1007E0000600FFF7ABFF9DF80300FFF7A7FF9DF89A
:1007F0000200FFF7A3FF2B20FFF760FF9DF8050025
:10080000FFF79CFF9DF80400FFF798FF9DF801009B
:10081000FFF794FF9DF80000FFF790FF2C20FFF7F3
:100820004DFF02B080BD000010B586B08C468646F4
:1008300009980899ADF816E0ADF814C08DF81320AA
:10084000ADF81030ADF80E108DF80D0040F200003C
:10085000C2F200000078012808D0FFE740F2000053
:10086000C2F200000078032824D1FFE7BDF916008A
:10087000EF281DDCFFE7BDF91400B0F5A07F17DA03
:10088000FFE7BDF916009DF80D1001EB410100EBEB
:100890004100013800280BD4FFE7BDF914009DF892
:1008A0000D1000EBC1000138B0F1FF3F01DCFFE7A4
:1008B000E2E023E0BDF91400EF281DDCFFE7BDF9FD
:1008C0001600B0F5A07F17DAFFE7BDF914009DF818
:1008D0000D1001EB410100EB4100013800280BD461
:1008E000FFE7BDF916009DF80D1000EBC1000138BF
:1008F000B0F1FF3F01DCFFE7BEE0FFE740F2680038
:10090000C2F200000078C00758B9FFE79DF8130055
:10091000B02806DBFFE79DF8130001308DF81300C7
:10092000FFE700208DF80C00FFE79DF90C0005287B
:1009300000F3A280FFE79DF90C00052804D1FFE732
:1009400000208DF80B000EE09DF8130000EB8001F5
:1009500041F29050C0F6000008449DF90C10405C34
:100960008DF80B00FFE700208DF80A00FFE79DF9E6
:100970000A00072879DCFFE79DF80B00C00780B369
:10098000FFE79DF80D00012811D1FFE7BDF8160023
:100990009DF90C100844BDF814109DF90A2011446B
:1009A000BDF8102080B289B2FFF7C6FC18E0BDF98F
:1009B00016109DF90C009DF80D3010FB0310BDF9C9
:1009C00014209DF90A1011FB0321C2180B440133B6
:1009D000BDF810C0EE46CEF800C0FFF715FDFFE7EA
:1009E00037E0BDF80E00BDF81010884230D0FFE7A8
:1009F0009DF80D00012811D1FFE7BDF816009DF903
:100A00000C100844BDF814109DF90A201144BDF8DB
:100A10000E2080B289B2FFF78FFC18E0BDF91610E6
:100A20009DF90C009DF80D3010FB0310BDF914204A
:100A30009DF90A1011FB0321C2180B440133BDF8C4
:100A40000EC0EE46CEF800C0FFF7DEFCFFE7FFE782
:100A5000FFE79DF80B0040088DF80B00FFE79DF8BD
:100A60000A0001308DF80A0081E7FFE79DF80C00CD
:100A700001308DF80C0058E706B010BD80B584B089
:100A8000ADF80E00ADF80C10ADF80A20ADF8083046
:100A9000BDF90E20BDF90C10BDF80A00084401385C
:100AA000BDF80830EC46CCF8003003B2104600F038
:100AB00003F804B080BD000080B588B084460A9871
:100AC000ADF81EC0ADF81C10ADF81A20ADF8183006
:100AD000ADF81600BDF91800BDF91C10401AFFF75B
:100AE000E9FB0090BDF91A00BDF91E10401AFFF78E
:100AF000E1FB0099024600209142C8BF0120ADF8F9
:100B00001400BDF81400C8B1FFE7BDF81E00ADF831
:100B10001200BDF81C00ADF81E00BDF81200ADF8C3
:100B20001C00BDF81A00ADF81000BDF81800ADF8B3
:100B30001A00BDF81000ADF81800FFE7BDF91E005F
:100B4000BDF91A10884219DDFFE7BDF81E00ADF8A7
:100B50000E00BDF81A00ADF81E00BDF80E00ADF88D
:100B60001A00BDF81C00ADF80C00BDF81800ADF877
:100B70001C00BDF80C00ADF81800FFE7BDF81A0026
:100B8000BDF81E10401AADF80A00BDF91800BDF9F5
:100B90001C10401AFFF78EFBADF80800BDF90A00E3
:100BA00000EBD0704008ADF80600BDF91C00BDF99F
:100BB0001810884204DAFFE70120ADF8040004E0D1
:100BC0004FF6FF70ADF80400FFE7FFE7BDF91E0028
:100BD000BDF91A10884239DCFFE7BDF8140048B1AE
:100BE000FFE7BDF81C00BDF81E10BDF81620FFF78A
:100BF000A3FB08E0BDF81E00BDF81C10BDF81620D0
:100C0000FFF79AFBFFE7BDF80810BDF80600401A91
:100C1000ADF80600BDF90600B0F1FF3F0FDCFFE7BD
:100C2000BDF80410BDF81C000844ADF81C00BDF868
:100C30000A10BDF806000844ADF80600FFE7FFE71C
:100C4000BDF81E000130ADF81E00BFE708B080BD42
:100C500080B584B0ADF80E00ADF80C10ADF80A20E8
:100C6000ADF80830BDF90E00BDF80C10BDF90A2032
:100C7000891A52000132BDF8083009B212B2FFF7EA
:100C8000FDFEBDF90E00BDF90C10BDF90A20BDF83E
:100C90000830EC46CCF804300023CCF800300323B5
:100CA00000F06CFB04B080BD80B582B08DF8070009
:100CB0009DF80700013801460091032838D80099B3
:100CC000DFE801F0020F1C2940F20001C2F200012E
:100CD000012008703620FFF7F1FC8820FFF72EFD79
:100CE00033E040F20001C2F2000102200870362019
:100CF000FFF7E4FC2820FFF721FD26E040F2000189
:100D0000C2F20001032008703620FFF7D7FC48200C
:100D1000FFF714FD19E040F20001C2F200010420C7
:100D200008703620FFF7CAFCE820FFF707FD0CE04B
:100D300040F20001C2F20001012008703620FFF7E6
:100D4000BDFC8820FFF7FAFCFFE702B080BD000081
:100D500041F24C01C4F20201086840F00200086050
:100D600040F20041C4F60001086820F47C6008608D
:100D7000086840F42860086040F22041C4F6000191
:100D800008686FF317300860086845F20002C0F287
:100D900055021043086040F20841C4F6000108689B
:100DA00040F47C60086040F20441C4F60001086829
:100DB00020F03800086040F20C41C4F600010868D9
:100DC00020F47C600860704741F26001C4F20201C7
:100DD000086840F48050086041F24001C4F202010A
:100DE000086840F480500860086820F4805008606B
:100DF00043F20001C4F20101086820F040000860DD
:100E0000086820F480600860086820F400400860EA
:100E1000086820F480400860086820F080000860BE
:100E200043F20402C4F20102106820F47060106002
:100E3000106840F4E0601060106820F0100010604E
:100E4000086820F002000860086820F001000860CF
:100E5000086820F038000860086840F01800086052
:100E6000086820F400500860086840F0040008603A
:100E7000086840F400700860106840F008001060D6
:100E8000086840F480700860106840F4805010607A
:100E9000086840F0400008607047000041F25801C7
:100EA000C4F20201086840F48040086041F2380151
:100EB000C4F20201086840F480400860086820F429
:100EC0008040086043F60001C4F20001086820F089
:100ED00040000860086840F480600860086820F4FA
:100EE00000400860086820F480400860086820F02E
:100EF0008000086043F60402C4F20002106820F487
:100F000070601060106840F4E0601060106820F0BD
:100F100010001060086820F002000860086820F0E7
:100F200001000860086820F038000860086840F098
:100F300018000860086820F400500860086820F075
:100F400004000860086840F400700860106840F011
:100F500008001060086820F480700860106840F491
:100F600080501060086840F0400008607047000042
:100F700083B0029000200190FFE701980299884217
:100F800011D2FFE700200090FFE70098112805D854
:100F9000FFE7FFE7009801300090F6E7FFE70198D0
:100FA00001300190E9E703B07047000080B584B0DC
:100FB00003900291ADF8062003980299BDF806202F
:100FC00000F002F804B080BD84B003900291019259
:100FD000002000900090FFE70098019988421CDAF9
:100FE000FFE7FFE7039880688007002801D4FFE748
:100FF000F8E70298007803990873FFE70398806880
:101000000006002801D5FFE7F8E7029801300290BA
:10101000FFE7009801300090DEE704B07047000061
:1010200040F27001C2F200010868013008607047A8
:1010300083B042F20001C4F20201086820F0070008
:101040000860086840F00200086041F20001C4F244
:101050000201086840F480700860FFE741F2000078
:10106000C4F2020000684005002801D4FFE7F5E75C
:101070001020029041F20401C4F20201086820F03D
:10108000F8500860029A086840EA0260086041F27D
:101090000001C4F20201086820F080700860FFE7D8
:1010A00041F20000C4F2020000688001002801D56E
:1010B000FFE7F5E741F20C01C4F202010191086873
:1010C00020F003000860086840F00200086008682B
:1010D000142262F30E2008600868012262F30610F1
:1010E0000860086820F0C0600860086840F0807000
:1010F000086041F20001C4F20201086840F080700B
:101100000860FFE741F20000C4F2020000688001BD
:10111000002801D4FFE7F5E741F20801C4F202011B
:10112000086820F003000860086840F003000860C9
:10113000FFE741F20800C4F20200006800F00C0072
:101140000C2801D0FFE7F4E741F20801C4F20201E4
:10115000086820F0F0000860086820F4E06008608B
:10116000086820F46050086041F20001C4F20201F6
:10117000086820F080600860FFE741F20000C4F2D8
:10118000020000684001002801D5FFE7F5E741F2C1
:101190001001C4F202010091086820F4FE400860CA
:1011A000086840F4C0500860086840F400300860E7
:1011B000086840F48030086041F20001C4F2020186
:1011C000086840F080600860FFE741F20000C4F268
:1011D000020000684001002801D4FFE7F5E741F272
:1011E0008801C4F20201086820F44000086041F25E
:1011F0006001C4F20201086840F40010086003B006
:101200007047000080B586B031208DF81700282087
:10121000ADF81400FFE7BDF91400B0F58C7F20DCB9
:10122000FFE72820ADF81200FFE7BDF91200C8283B
:1012300010DCFFE7BDF91200BDF9141023224CF2B7
:101240001863FFF705FDFFE7BDF812005030ADF859
:101250001200EAE7FFE7BDF814005030ADF81400C3
:10126000D9E72820ADF81000FFE7BDF91000B0F570
:101270008C7F00F38180FFE72820ADF80E00FFE7A8
:10128000BDF90E00C82870DCFFE79DF817003A286A
:1012900014D1FFE7BDF80E000D38BDF8101011395C
:1012A0006B4605225A604CF218621A6000B209B20D
:1012B000582247F6EF33FFF7B7FA4AE09DF81700D8
:1012C0003B2814D1FFE7BDF80E000D38BDF8101013
:1012D00011396B4605225A604CF218621A6000B24E
:1012E00009B2302247F6EF33FFF79EFA30E09DF85F
:1012F00017003C2814D1FFE7BDF80E000D38BDF8EB
:10130000101011396B4605225A604CF218621A60AF
:1013100000B209B2452247F6EF33FFF785FA16E02F
:10132000BDF80E000D38BDF8101011399DF81720CA
:10133000EC460523CCF804304CF21863CCF80030AE
:1013400000B209B247F6EF33FFF76EFAFFE7FFE7A7
:10135000FFE7FFE7BDF80E005030ADF80E009DF836
:10136000170001308DF817008AE7FFE7BDF810007D
:101370005030ADF8100078E706B080BD10B586B0EB
:101380008C46864609980899ADF816E0ADF814C069
:10139000ADF812208DF81130ADF80E10ADF80C003C
:1013A000BDF81200C0F10100ADF80A000120ADF84F
:1013B0000800BDF812100020A0EB4101ADF80610A6
:1013C000ADF80400BDF81200ADF80200FFE7BDF96A
:1013D0000400BDF90210884280F28F80FFE7BDF95A
:1013E0000A00002812D4FFE7BDF802000138ADF86A
:1013F0000200BDF806000230ADF80600BDF8061088
:10140000BDF80A000844ADF80A00FFE7BDF8040083
:101410000130ADF80400BDF808000230ADF8080056
:10142000BDF80810BDF80A000844ADF80A009DF8A0
:101430001100C00768B3FFE7BDF81600BDF804103F
:101440000844BDF81410BDF90230C91ABDF80E20C9
:1014500002EB43020132BDF80C3000B209B212B205
:10146000FFF70CFBBDF81600BDF802100844BDF8EC
:101470001410BDF90430C91ABDF80E2002EB430266
:101480000132BDF80C3000B209B212B2FFF7F6FA21
:10149000FFE79DF81100800700282DD5FFE7BDF874
:1014A0001600BDF80410401ABDF81410BDF9023042
:1014B000C91ABDF80E2002EB43020132BDF80C3010
:1014C00000B209B212B2FFF7D9FABDF81600BDF8A2
:1014D0000210401ABDF81410BDF90430C91ABDF845
:1014E0000E2002EB43020132BDF80C3000B209B20B
:1014F00012B2FFF7C3FAFFE769E706B010BD0000BC
:1015000080B586B0002004900590FFF791FDFFF7AD
:101510001FFCFFF759FCFFF7C1FC69460B208860F0
:1015200040F20043C4F600034B600C20086043F215
:101530000000C4F2010002221946FEF79FFF0320BB
:10154000FFF7B2FB0498FEF711FFFFF75BFEFFE722
:1015500040F27400C2F200000078014603910328B3
:1015600008D80399DFE801F00203040502E001E076
:1015700000E0FFE7ECE7F1EE100A4FF6FF71C0F272
:10158000C03120EA010040F04070E1EE100A7047DF
:1015900000000000003E5B4F5B3E3E6B4F6B3E1C0D
:1015A0003E7C3E1C183C7E3C181C577D571C1C5E24
:1015B0007F5E1C00183C1800FFE7C3E7FF001824FB
:1015C0001800FFE7DBE7FF30483A060E26297929A5
:1015D00026407F050507407F05253F5A3CE73C5ADA
:1015E0007F3E1C1C08081C1C3E7F14227F22145FB7
:1015F0005F005F5F06097F017F006689956A606012
:1016000060606094A2FFA29408047E040810207E0B
:10161000201008082A1C08081C2A08081E10101090
:10162000100C1E0C1E0C30383E3830060E3E0E06D6
:10163000000000000000005F000000070007001429
:101640007F147F14242A7F2A1223130864623649E8
:101650005620500008070300001C224100004122D0
:101660001C002A1C7F1C2A08083E080800807030D5
:101670000008080808080000606000201008040244
:101680003E5149453E00427F40007249494946214A
:1016900041494D331814127F1027454545393C4ABE
:1016A00049493141211109073649494936464949D5
:1016B000291E00001400000040340000000814221D
:1016C000411414141414004122140802015909068B
:1016D0003E415D594E7C1211127C7F494949363E8C
:1016E000414141227F4141413E7F494949417F0972
:1016F0000909013E414151737F0808087F00417F7D
:1017000041002040413F017F081422417F4040407A
:10171000407F021C027F7F0408107F3E4141413E12
:101720007F090909063E4151215E7F091929462694
:101730004949493203017F01033F4040403F1F2098
:1017400040201F3F4038403F63140814630304786F
:1017500004036159494D43007F414141020408108F
:1017600020004141417F04020102044040404040CA
:10177000000307080020545478407F284444383838
:1017800044444428384444287F38545454180008AA
:101790007E090218A4A49C787F0804047800447D84
:1017A00040002040403D007F1028440000417F4021
:1017B000007C047804787C08040478384444443875
:1017C000FC1824241818242418FC7C080404084855
:1017D0005454542404043F44243C4040207C1C20A6
:1017E00040201C3C4030403C44281028444C909001
:1017F000907C4464544C440008364100000077005B
:1018000000004136080002010204023C2623263C67
:101810001EA1A161123A4040207A385454555921F2
:1018200055557941225454784221555478402054DA
:101830005579400C1E527212395555555939545428
:10184000545939555454580000457C410002457D97
:10185000420001457C407D1211127DF0282528F0C0
:101860007C545545002054547C547C0A097F4932ED
:10187000494949323A4444443A324A4848303A4164
:1018800041217A3A42402078009DA0A07D3D42420D
:10189000423D3D4040403D3C24FF2424487E494396
:1018A000662B2FFC2F2BFF0929F620C0887E090309
:1018B00020545479410000447D413048484A323830
:1018C0004040227A007A0A0A727D0D19317D26295C
:1018D000292F28262929292630484D402038080854
:1018E000080808080808382F10C8ACBA2F10283488
:1018F000FA00007B000008142A142222142A14087B
:101900005500550055AA55AA55AAFF55FF55FF0089
:101910000000FF00101010FF00141414FF0010103E
:10192000FF00FF1010F010F0141414FC001414F752
:1019300000FF0000FF00FF1414F404FC141417103F
:101940001F10101F101F1414141F00101010F0008F
:101950000000001F101010101F10101010F01000C9
:101960000000FF101010101010101010FF100000D9
:1019700000FF140000FF00FF00001F10170000FC14
:1019800004F414141710171414F404F40000FF00E6
:10199000F714141414141414F700F714141417146F
:1019A00010101F101F141414F4141010F010F00075
:1019B000001F101F0000001F14000000FC14000096
:1019C000F010F01010FF10FF141414FF141010107A
:1019D0001F00000000F010FFFFFFFFFFF0F0F0F02D
:1019E000F0FFFFFF0000000000FFFF0F0F0F0F0FC1
:1019F0003844443844FC4A4A4A347E02020606020D
:101A00007E027E0263554941633844443C04407E73
:101A1000201E2006027E020299A5E7A5991C2A49EC
:101A20002A1C4C7201724C304A4D4D303048784877
:101A300030BC625A463D3E494949007E0101017E63
:101A40002A2A2A2A2A44445F444440514A444040B6
:101A5000444A51400000FF0103E080FF00000808F5
:101A60006B6B083612362436060F090F0600001875
:101A7000180000001010003040FF0101001F01019C
:101A80001E00191D1712003C3C3C3C0000000000E9
:101A9000B01A00080000002008000000C40100087F
:101AA000B81A00080800002088060000E0010008BD
:081AB00001000000000000002D
:040000050800018965
:00000001FF
