:020000040800F2
:10000000880600202902000867020008690200082B
:100010006B0200086D0200086F020008000000007B
:100020000000000000000000000000007102000855
:10003000730200080000000075020008290B000888
:1000400079020008790200087902000879020008A4
:100050007902000879020008790200087902000894
:100060007902000879020008790200087902000884
:100070007902000879020008790200087902000874
:100080007902000879020008790200087902000864
:100090007902000879020008790200087902000854
:1000A0007902000879020008790200087902000844
:1000B0007902000879020008790200087902000834
:1000C0007902000879020008790200087902000824
:1000D0007902000879020008790200087902000814
:1000E0007902000879020008790200087902000804
:1000F00079020008790200087902000879020008F4
:1001000079020008790200087902000879020008E3
:1001100079020008790200087902000879020008D3
:1001200079020008790200087902000879020008C3
:1001300079020008790200087902000879020008B3
:1001400079020008790200087902000879020008A3
:100150007902000879020008790200087902000893
:100160007902000879020008790200087902000883
:1001700079020008790200087902000800000000F6
:10018000790200087902000800F002F800F03CF85B
:100190000AA090E8000C82448344AAF10107DA45E2
:1001A00001D100F031F8AFF2090EBAE80F0013F0F8
:1001B000010F18BFFB1A43F001031847B00B0000F2
:1001C000D00B0000103A24BF78C878C1FAD8520783
:1001D00024BF30C830C144BF04680C6070470000C1
:1001E0000023002400250026103A28BF78C1FBD840
:1001F000520728BF30C148BF0B6070471FB500F0E1
:10020000A8FD1FBD10B510BD00F057F81146FFF74F
:10021000F5FF00F07BFD00F075F803B4FFF7F2FF87
:1002200003BC00F07DF8000017481849184B9942AC
:100230003CBF50F8042B41F8042BF8D3154B16495A
:100240004FF000028B4238BF43F8042BFAD3DFF89B
:100250004C00016841F470010160BFF34F8FBFF3A0
:100260006F8F0F480047FEE7FEE7FEE7FEE7FEE779
:10027000FEE7FEE7FEE7FEE7FEE7000009480A4961
:100280000A4A0B4B70470000900D00080000002048
:1002900008000020080000208806002088ED00E00B
:1002A00089010008880000208806002088020020BC
:1002B00088020020704770477047754600F02CF8A0
:1002C000AE4605006946534620F00700854618B043
:1002D00020B5FFF7D3FFBDE820404FF000064FF0F8
:1002E00000074FF000084FF0000BAC46ACE8C00927
:1002F000ACE8C009ACE8C009ACE8C00921F00701CE
:100300008D46704710B50446AFF300802046BDE827
:100310001040FFF782BF000000487047080000202F
:1003200001491820ABBEFEE726000200704700001E
:1003300080B584B0ADF80E004FF496300290FF20E7
:10034000ADF8060040F20000C2F20000007801287B
:1003500008D0FFE740F20000C2F200000078032856
:1003600008D1FFE70021EF2240F23F13084600F0DA
:10037000F1F918E040F20000C2F200000078022813
:1003800008D0FFE740F20000C2F200000078042825
:1003900008D1FFE7002140F23F12EF23084600F0AA
:1003A000D9F9FFE7FFE7FFE7029860B1FFE702989E
:1003B000013802909DF80F0000F0A4F99DF80E009E
:1003C00000F0A0F9F0E704B080BD0000F0B589B0FE
:1003D0008C46864610980F990E99CDF820E0CDF8FE
:1003E0001CC0ADF81A200593ADF81210ADF810003E
:1003F000089840F26801C2F200010860079840F2D4
:10040000700CC2F2000CCCF80000BDF81A0040F2EB
:100410007401C2F200010880BDF81A0040000322F6
:1004200002FA00F3DCF80010886818438860BDF811
:100430001A006FF0010404FA00F3DCF800104868B9
:1004400018404860BDF81A0040006FF0030E0EFA25
:1004500000F3DCF80010C8681840C860059840F246
:100460007803C2F200031860BDF8120040F27C016C
:10047000C2F200010880BDF81A00400002FA00F53F
:100480001968886828438860BDF81A0004FA00F5E6
:100490001968486828404860BDF81A0040000EFA04
:1004A00000F51968C8682840C8600F9840F28001BC
:1004B000C2F200010860BDF8105040F28400C2F2A0
:1004C00000000580BDF81A506D0002FA05F70E68AD
:1004D000B5683D43B560BDF81A5004FA05F60D68DD
:1004E0006C6834406C60BDF81A4064000EFA04F584
:1004F0000C68D4F80CE00EEA050EC4F80CE0BDF868
:100500001AE04FEA4E0E02FA0EF5DCF80040D4F87D
:1005100000E02EEA050EC4F800E0BDF812E04FEA54
:100520004E0E02FA0EF51C68D4F800E02EEA050E15
:10053000C4F800E0BDF810E04FEA4E0E02FA0EF5E6
:100540000C68D4F800E02EEA050EC4F800E0BDF80F
:100550001AE04FEA4E0E02FA0EF4DCF800E0DEF884
:1005600000C04CEA040CCEF800C0BDF812C04FEA3F
:100570004C0C02FA0CFED3F800C0DCF8003043EA61
:100580000E03CCF80030BDF810305B0002FA03FC1B
:100590000B681A6842EA0C021A6002880120009077
:1005A00000FA02F30A6851691943516100F084F8B6
:1005B0006420039000F030F9282000F07DF8C0207E
:1005C00000F07AF8262000F09DF8C12000F074F8C1
:1005D0001120029000F096F8C52000F06DF835204B
:1005E00000F090F83E2000F08DF8C72000F064F88D
:1005F000BE2000F087F8362000F05EF8482000F0BA
:1006000081F83A2000F058F8552000F07BF8B1202E
:1006100000F052F80020019000F074F81F2000F064
:1006200071F82A2000F048F8019800F06BF8019862
:1006300000F068F8019800F065F8EF2000F062F82B
:100640002B2000F039F8019800F05CF8019800F0D8
:1006500059F8009800F056F83F2000F053F8342085
:1006600000F02AF8B72000F027F8072000F04AF839
:10067000B62000F021F80A2000F044F8822000F0B3
:1006800041F8272000F03EF8019800F03BF802986E
:1006900000F012F8039800F0BFF8292000F00CF8E1
:1006A000039800F0B9F82C2000F006F8052000F0BF
:1006B000B3F809B0F0BD000080B582B08DF8070036
:1006C0009DF807008DF8060040F21441C4F60001C1
:1006D0000091086820F480500860086820F0040049
:1006E000086043F20000C4F201000DF1060101228E
:1006F000052300F0D5F90099086840F0040008606F
:1007000002B080BD80B582B08DF807009DF807006B
:100710008DF8060040F21441C4F60001009108680B
:1007200040F480500860086820F00400086040F23F
:100730006800C2F2000000680DF1060101220523E5
:1007400000F0AEF90099086840F00400086002B0BB
:1007500080BD000080B582B0ADF80600ADF8041091
:10076000ADF80220ADF800302A20FFF7A5FF9DF874
:100770000700FFF7C7FF9DF80600FFF7C3FF9DF8CE
:100780000300FFF7BFFF9DF80200FFF7BBFF2B2020
:10079000FFF792FF9DF80500FFF7B4FF9DF80400F6
:1007A000FFF7B0FF9DF80100FFF7ACFF9DF80000D8
:1007B000FFF7A8FF2C20FFF77FFF02B080BD0000ED
:1007C00041F24C01C4F20201086840F004000860E4
:1007D00040F60002C4F6000200201060116841F2E9
:1007E0000043C0F205031943116040F60802C4F645
:1007F0000002116843F60043C0F20F031943116071
:1008000040F60401C4F60001086040F60C01C4F68D
:10081000000108607047000083B002900020019042
:10082000FFE701980299884211D2FFE7002000906B
:10083000FFE70098112805D8FFE7FFE7009801308F
:100840000090F6E7FFE7019801300190E9E703B077
:100850007047000041F24C01C4F20201086840F008
:100860000200086040F20041C4F60001086820F46C
:100870007C60086040F22042C4F60002106845F235
:100880000003C0F2550318431060086820F07C4054
:10089000086040F22441C4F6000108680022C5F255
:1008A00050521043086040F20841C4F60001086845
:1008B00040F6C072CFF600421043086040F2044197
:1008C000C4F6000108684EF238029043086040F216
:1008D0000C41C4F6000108684FF23F02C0F2FF323B
:1008E000104008607047000041F26001C4F202014C
:1008F000086840F48050086041F24001C4F20201EF
:10090000086840F480500860086820F4805008604F
:1009100041F25801C4F20201086840F480400860C6
:1009200041F23801C4F20201086840F480400860D6
:10093000086820F48040086043F20002C4F201021B
:10094000106820F04000106043F60001C4F200017E
:10095000086820F040000860106820F48060106093
:10096000086840F480600860106820F4004010605F
:10097000086820F400400860106820F080001060D3
:10098000086820F08000086043F2040CC4F2010CF7
:10099000DCF8000020F47060CCF80000DCF8000007
:1009A00040F4E060CCF80000DCF8000020F010001B
:1009B000CCF8000043F60403C4F20003186820F4E6
:1009C00070601860186840F4E0601860186820F0E3
:1009D00010001860106820F480401060086820F44F
:1009E00080400860106820F002001060106820F05D
:1009F00001001060086820F002000860086820F01C
:100A000001000860106820F038001060106840F0A5
:100A100018001060086820F038000860086840F08E
:100A200018000860106820F400501060086820F476
:100A300000500860106840F004001060106840F436
:100A400000701060DCF8000040F00800CCF80000F6
:100A5000086820F004000860086840F4007008602E
:100A6000186840F008001860106840F4807010604A
:100A7000086820F480700860DCF8000040F48050C2
:100A8000CCF80000186840F480501860106840F0FE
:100A900040001060086840F04000086070470000A7
:100AA00080B584B003900291ADF8062000930398BE
:100AB0000299BDF80630002200F002F804B080BDB3
:100AC00085B0049003910292019300200090009061
:100AD000FFE70098019988421CDAFFE7FFE70498D6
:100AE000806800F00200022801D0FFE7F7E70398D2
:100AF000007804990873FFE704988068C00708B974
:100B0000FFE7F9E7039801300390FFE70098013011
:100B10000090DEE7FFE7049880680006002801D512
:100B2000FFE7F8E705B0704740F26C01C2F2000140
:100B3000086801300860704783B042F20001C4F2D7
:100B40000201086820F007000860086840F0020011
:100B5000086041F20001C4F20201086840F48070AC
:100B60000860FFE741F20000C4F20200006840059F
:100B7000002801D4FFE7F5E71020029041F20401BC
:100B8000C4F20201086820F0F8500860029A086870
:100B900040EA0260086041F20001C4F20201086804
:100BA00020F080700860FFE741F20000C4F202000C
:100BB00000688001002801D5FFE7F5E741F20C014C
:100BC000C4F202010191086820F00300086008687F
:100BD00040F0020008600868142262F30E200860EA
:100BE0000868012262F306100860086820F0C060FF
:100BF0000860086840F08070086041F20001C4F2AB
:100C00000201086840F080700860FFE741F20000D0
:100C1000C4F2020000688001002801D4FFE7F5E774
:100C200041F20801C4F20201086820F003000860E4
:100C3000086840F003000860FFE741F20800C4F2D2
:100C40000200006800F00C000C2801D0FFE7F4E778
:100C500041F20801C4F20201086820F0F0000860C7
:100C6000086820F4E0600860086820F460500860BC
:100C700041F20001C4F20201086820F080600860BF
:100C8000FFE741F20000C4F20200006840010028C2
:100C900001D5FFE7F5E741F21001C4F2020100912E
:100CA000086820F4FE400860086840F4C0500860FE
:100CB000086840F400300860086840F4803008603C
:100CC00041F20001C4F20201086840F0806008604F
:100CD000FFE741F20000C4F2020000684001002872
:100CE00001D4FFE7F5E741F28801C4F20201086888
:100CF00020F44000086041F26001C4F2020108687B
:100D000040F40010086003B07047000080B584B064
:100D100000200390FFF710FFFFF752FDFFF79AFD49
:100D2000FFF7E2FD69460B20886040F20043C4F6FD
:100D300000034B600C20086043F20000C4F2010085
:100D400002221946FFF742FB1F20FFF7F1FAFFE7E7
:100D5000FEE7F1EE100A4FF6FF71C0F2C03120EA53
:100D6000010040F04070E1EE100A7047900D00085D
:100D70000000002008000000C4010008980D0008D1
:100D80000800002080060000E001000800000000CC
:080D900001000000000000005A
:040000050800018965
:00000001FF
